:1000000045C0000061C000005FC000005DC000008E
:100010005BC0000059C0000057C0000055C0000080
:1000200053C0000051C000004FC000004DC0000090
:100030004BC0000049C0000047C00000C4C400001D
:1000400043C0000041C000003FC000003DC00000B0
:100050003BC0000039C0000037C0000035C00000C0
:1000600033C0000031C000002FC000002DC00000D0
:100070002BC0000029C0000027C0000025C00000E0
:1000800023C0000021C000001FC0000011241FBEBB
:10009000CFEFD0E1DEBFCDBF13E0A0E0B1E0E4E000
:1000A000F4E100E00BBF02C007900D92A431B1074C
:1000B000D9F723E0A4E1B3E001C01D92A538B2074F
:1000C000E1F735D60C94000A9BCF8FEF8ABB8FE007
:1000D0008093640008958BBBE5E6F0E08081846046
:1000E000808380818D7F80838081816080838AE0AE
:1000F0008A95F1F780818E7F80838EEC8A95F1F767
:1001000000C008958BBBE5E6F0E080818B7F8083A3
:1001100080818D7F80838081816080838AE08A9561
:10012000F1F780818E7F80838EEC8A95F1F700C095
:10013000089581E0E7CF08958FE0E4DFFACF0895D6
:100140008CE0E0DFF6CF0895C0DF88E3DBDF8FE0EF
:10015000D9DF86E0D7DFEDCF0895CF93DF93EC01B1
:100160008881882329F02196B6DF89918111FCCFFF
:10017000DF91CF91089590E4699F800D11248068EC
:10018000C1CF0895CF93DF93EA01F5DFCE01E5DF1C
:10019000DF91CF9108958FE083BF82E087BF81E038
:1001A00081BF789408958FEF82BB11BA88BB87BB5B
:1001B0001BBA8ABB0895F7DFC7CF08950F931F932B
:1001C000CF93DF93FC01EB0181E090E06C3371058C
:1001D00011F080E090E000271127081B190BC230B6
:1001E000D10549F12081318180914B0390914C03DD
:1001F000820F931FBE01F2D5282F392F8083918360
:100200002017310731F4CC33D10569F02C2F8D2F15
:100210000FC0C901992324F488279927821B930BC7
:10022000282F892F05C02BE380E002C020E080E06A
:100230002083818317C02081318180914B0390916D
:100240004C03820F931F81709078992324F40197B7
:100250008E6F9F6F01969C01918380830817190709
:10026000C1F6E4CFDF91CF911F910F9108952091B6
:10027000330330913403820F931F68E170E0AED5F1
:10028000282F392F80933303909334032F3F8FEF20
:100290003807E9F081E090E02C30310514F480E07B
:1002A00090E090931703809316032C3031051CF4D3
:1002B000E1E1F2E002C0EEE0F2E080819181A28112
:1002C0008093050190930601A0930701089587E1AB
:1002D00090E0909334038093330381E090E0909317
:1002E000170380931603EEE0F2E0E7CF0F931F931E
:1002F000CF93DF93EB018A0121E030E06330710599
:1003000014F020E030E0FC01E21BF30B9F0112F43B
:100310002D5F3F4F35952795359527952E0F3F1F1C
:10032000CF0164E670E05AD5261B370BCF0160E998
:1003300071E054D5C901860F971FCC0FDD1FCA533A
:10034000DD4F48815981840F951F800F911F0197C0
:1003500067E070E043D5DF91CF911F910F91089531
:1003600080910A0190910B01FC01EE0FFF1FE650F6
:10037000FD4F2081318130934E0320934D0302972E
:1003800079F48091380390913903019719F08CE149
:1003900090E002C08DE190E090934E0380934D0376
:1003A0000895809119038F93809118038F93809102
:1003B0002D038F9380912C038F93809136038F931D
:1003C000809135038F9385E091E09F938F9384E133
:1003D00092E09F938F938AE393E09F938F9335D519
:1003E0004AE353E061E080E0CDDE61E080915503B7
:1003F000C2DE8DB79EB70C960FB6F8949EBF0FBEA7
:100400008DBF08958EE693E09F938F9380910B01AB
:100410008F9380910A018F93809109018F9380912E
:1004200008018F9380910D018F9380910C018F9320
:1004300086E292E09F938F938BE593E09F938F9357
:1004400004D54BE553E060E080E09CDE60E0809105
:10045000550391DE8DB79EB70C960FB6F8949EBFEC
:100460000FBE8DBF089520910C0130910D01C9017F
:1004700083709927892B31F4C90164E670E0AED40A
:10048000892B59F4C90160E971E0A8D421E030E07A
:10049000892B09F020E0832F02C021E080E0209327
:1004A0003803809339035CDF4091080150910901C2
:1004B00060910A0170910B0180910C0190910D01E6
:1004C00015DF880F991F880F991FBC0160527D4F5F
:1004D0008EE693E0B3D480910101811193CF08950A
:1004E0001092300310922F031092320381E0809318
:1004F000010126DEB8DF55CF0895809154038F9314
:10050000809153038F9380912B038F9380912A03C3
:100510008F9382E091E09F938F9388E392E09F9383
:100520008F938AE193E09F938F938FD44AE153E0B6
:1005300061E080E027DE61E0809155031CDE8DB72D
:100540009EB70A960FB6F8949EBF0FBE8DBF089552
:1005500010923003109201011092320381E08093D7
:100560002F03EADD80916D03811103C043E552E062
:1005700002C045E452E060E08091550303DEBDDF38
:1005800080916D0381111DC065E071E082E091E012
:1005900055D480911603909117039093570380933D
:1005A0005603809135039091360390932B038093EB
:1005B0002A0380912C0390912D03909354038093F0
:1005C00053030895CF93C0911403CB3050F565E0E9
:1005D00071E082E091E029D4892B19F520912A035A
:1005E00030912B03809135039091360328173907FA
:1005F000C1F4209153033091540380912C039091C6
:100600002D032817390769F411C0CF5FC093140375
:100610008091000180958093000188BB1092370380
:100620000CC0109231038FEF88BB07C081E080932C
:10063000310380913703823040F7CF9108951092B3
:10064000550310925A0310922F0310920101109239
:10065000320381E08093300373DD44E652E060E0D2
:10066000809155038FDD45E752E061E080915503AD
:1006700089CD0895809172038B3FC1F028F48F37A4
:1006800069F1873FF9F008958D3F49F08E3F51F5AC
:100690008FEF9FEF90934C0380934B03089581E07D
:1006A00090E090934C0380934B03089510924C0379
:1006B00010924B0380915A038823A1F081508093BC
:1006C0005A03089510924C0310924B0380915A03E1
:1006D0008B3041F08F5F80935A03089580912E03F1
:1006E0008111ADCF0895EF92FF920F931F93CF9397
:1006F000DF9322DDB8DE10925A031092720310923B
:100700002E0360E083E037DD0F2EFAE0EF2EF02DB0
:100710000F2EF7E0FF2EF02D04E016E0D9E0C3E045
:1007200069C080B380937203A5DF809172038F3F0D
:1007300009F460C02FEF8FEF98E021508040904087
:10074000E1F700C0000080915A03811112C0C093EC
:10075000550320910C0130910D0180914B03909134
:100760004C03820F931F90930D0180930C017BDE4D
:100770003AC0813049F4D09355036CE070E08AE0D0
:1007800091E01CDD70DE2FC0823059F410935503C8
:1007900060914D0370914E0388E091E00FDD63DEC0
:1007A00022C0833069F4009355036CE070E085E368
:1007B00093E004DD80914B0390914C0358DD13C00E
:1007C000843041F4F09255036CE370E08CE293E0E6
:1007D000F5DC09C0853039F4E09255036CE370E034
:1007E00088E193E0EBDC80915A03833010F0D9DD8F
:1007F00001C008DE80915A03863008F492CF81E070
:1008000080932E03DF91CF911F910F91FF90EF9076
:10081000089580B3809372032DDF809172038F3F20
:1008200009F45AC02FEF8FEF98E02150804090409C
:10083000E1F700C0000080915A03843020F083E08B
:1008400080935A033CC081111CC01092550362E092
:1008500070E086E593E0B2DC8091560390915703F7
:10086000892B19F4E1E1F2E002C0EEE0F2E08081D0
:100870009181A2818093020190930301A0930401CE
:1008800026C0813049F484E0809355036CE070E029
:100890008AE293E093DC1BC0823079F487E0809396
:1008A00055036CE370E083E593E088DC42DC46E8C6
:1008B00052E060E080E066DC0AC0833041F445E449
:1008C00052E060E080E05EDC81E080936D03809127
:1008D00072038F3709F011CE0895809150038F93E2
:1008E00080914F038F93809152038F938091510396
:1008F0008F93809174038F93809173038F93809172
:100900006C038F9380916B038F9383EA92E09F93A4
:100910008F9385E793E09F938F9397D245E753E0BA
:1009200061E080E02FDC80B3809372032DB73EB787
:10093000245F3F4F0FB6F8943EBF0FBE2DBF8D3FD3
:10094000B9F08E3F19F08F3761F52AC080911503F9
:1009500091E0811190E090931503882319F04BE901
:1009600052E002C043E952E060E080E00BCC089521
:100970004BE952E060E080E005DC10921503109234
:10098000500310924F031092520310925103109291
:1009900074031092730310926C0310926B0308950A
:1009A0004ECE08951092300310922F031092010141
:1009B00081E080933203C4DB47EB52E060E080E0EB
:1009C000E1DB8BCF08951F920F920FB60F92112487
:1009D0000BB60F922F933F934F935F936F937F9339
:1009E0008F939F93AF93BF93EF93FF9380914A03AD
:1009F0008F5F8B3319F080934A0334C110924A03FE
:100A000080915803909159030196909359038093D4
:100A1000580383369105B1F480911803909119031E
:100A20000196909319038093180310925903109222
:100A3000580380913103882329F0809137038F5F19
:100A4000809337038091180390911903CC9769F430
:100A500080912C0390912D03019690932D03809308
:100A60002C03109219031092180380912C0390917B
:100A70002D03CC97F9F480913503909136030196BC
:100A800090933603809335032091330330913403E0
:100A90002F5F3F4F309334032093330310922D0385
:100AA00010922C030D9731F481E090E0909336037F
:100AB0008093350380913303909134030C9719F49C
:100AC00080E090E0D4DB8091330390913403489729
:100AD00081F480E090E0CBDB2CDB809108019091E9
:100AE000090101969093090180930801BCDC1092E2
:100AF0001403209108013091090180914D039091D8
:100B00004E03821793077CF480910A0190910B01A8
:100B1000019690930B0180930A0181E090E09093FD
:100B200009018093080180910A0190910B010D97B2
:100B30007CF080910C0190910D01019690930D0134
:100B400080930C0181E090E090930B0180930A0167
:100B500080913003882389F080B3809372038E3FA5
:100B600009F4BEDC809172038D3F09F4F1DC8091C1
:100B700072038B3F91F416DF10C0809132038823FB
:100B800011F0ABDE0AC080910101882311F009DC6D
:100B900004C080912F0381113CDE809172038F3F4E
:100BA00049F02FEF8FEF98E0215080409040E1F71F
:100BB00000C0000080916D03811104DD8091150358
:100BC0008823D9F18091580390915903019690930D
:100BD000500380934F038336910549F4809151036C
:100BE0009091520301969093520380935103809108
:100BF000510390915203CC9769F4809173039091C3
:100C000074030196909374038093730310925203BC
:100C1000109251038091730390917403CC9769F4FF
:100C200080916B0390916C03019690936C03809379
:100C30006B03109274031092730380B3809372035A
:100C40008F3731F480912E03882361F0F8DC0AC0DD
:100C500090910101992331F08F3B21F480912E0373
:100C6000811141DDFF91EF91BF91AF919F918F91E4
:100C70007F916F915F914F913F912F910F900BBE9C
:100C80000F900FBE0F901F901895CF92DF92FF929A
:100C90000F931F93CF93DF93CDB7DEB7DA950FB6DF
:100CA000F894DEBF0FBECDBF80E0EEE0F1E0DE01E4
:100CB000119601900D928A95E1F78E010F5F1F4FFB
:100CC0006E0121E0C20ED21EFF24FA94F09272034C
:100CD000A80160E080E056DAA801405F5F4F61E064
:100CE00080E050DA809172038F3F29F480B38093C3
:100CF00072038F3FD9F38FEF9FEF28E08150904030
:100D00002040E1F700C00000005E1F4F0C151D05DC
:100D1000E9F6D3950FB6F894DEBF0FBECDBFDF91D5
:100D2000CF911F910F91FF90DF90CF900895109277
:100D30002E0310922F031092320310923003109260
:100D4000310310926D031092150310925703109205
:100D50005603109217031092160310925A03109222
:100D60005503109237031092140310924A03109205
:100D70004C0310924B0310925403109253031092A1
:100D80002B0310922A031092500310924F031092DB
:100D90005203109251031092740310927303109235
:100DA0006C0310926B031092590310925803109227
:100DB00019031092180310922D0310922C03109215
:100DC0003603109235031092340310923303F3D993
:100DD0005CDFB2D988DC33DCDED9FFCF97FB072E8E
:100DE00016F4009406D077FD08D00BD007FC05D090
:100DF0003EF4909581959F4F0895709561957F4F32
:100E00000895AA1BBB1B51E107C0AA1FBB1FA61751
:100E1000B70710F0A61BB70B881F991F5A95A9F7A3
:100E200080959095BC01CD010895FB01DC018D9169
:100E3000019080190110D9F3990B0895FB01DC0191
:100E400001900D920020E1F708950F931F93CF9327
:100E5000DF93CDB7DEB72E970FB6F894DEBF0FBE87
:100E6000CDBF0D891E8986E08C831A8309838FEF9D
:100E70009FE79E838D83AE01475E5F4F6F89788DBC
:100E8000CE01019610D0EF81F885E00FF11F10829E
:100E90002E960FB6F894DEBF0FBECDBFDF91CF9177
:100EA0001F910F9108952F923F924F925F926F92F0
:100EB0007F928F929F92AF92BF92CF92DF92EF92EA
:100EC000FF920F931F93CF93DF93CDB7DEB72B978E
:100ED0000FB6F894DEBF0FBECDBF6C017B018A0157
:100EE000FC0117821682838181FFBFC1CE0101966A
:100EF0003C01F6019381F70193FD859193FF819168
:100F00007F01882309F4ADC1853239F493FD8591C1
:100F100093FF81917F01853221F4B60190E0D6D113
:100F2000E8CF912C212C312CFFE1F315D8F08B3236
:100F300079F038F4803279F08332A1F4232D2061E6
:100F40001DC08D3261F0803369F4232D216016C0FD
:100F5000832D8260382EE32DE4603E2E2AC0F32DCF
:100F6000F8601DC037FC2DC020ED280F2A3040F05E
:100F70008E32B9F436FC75C1232D2064322E19C08F
:100F800036FE06C08AE0989E200D1124922E11C0D4
:100F9000EAE02E9E200D1124222EF32DF0623F2E2A
:100FA00008C08C3621F4832D8068382E02C0883624
:100FB00041F4F70193FD859193FF81917F018111A8
:100FC000B3CF982F9F7D9554933028F40C5F1F4F1B
:100FD0009FE399830DC0833631F0833771F08335F9
:100FE00009F055C020C0F801808189830E5F1F4F32
:100FF00088248394912C530112C02801F2E04F0EF3
:10100000511CF801A080B18036FE03C0692D70E04C
:1010100002C06FEF7FEFC5014ED14C018201F32D6D
:10102000FF773F2E15C0280122E0420E511CF80127
:10103000A080B18036FE03C0692D70E002C06FEF62
:101040007FEFC5012DD14C01F32DF0683F2E8201B9
:1010500033FC19C0822D90E088169906A0F4B601E1
:1010600080E290E033D12A94F5CFF50137FC8591E9
:1010700037FE81915F01B60190E028D121102A94BA
:1010800021E0821A91088114910479F7E1C0843635
:1010900011F0893639F5F80137FE07C0608171819A
:1010A000828193810C5F1F4F08C060817181072E80
:1010B000000C880B990B0E5F1F4FF32DFF763F2E10
:1010C00097FF09C090958095709561957F4F8F4FE0
:1010D0009F4FF0683F2E2AE030E0A30133D1882EE5
:1010E000861844C0853731F4232D2F7EB22E2AE096
:1010F00030E025C0932D997FB92E8F36C1F018F4BA
:10110000883579F0AEC0803719F0883721F0A9C052
:10111000E92FE061BE2EB4FE0DC0FB2DF460BF2EA2
:1011200009C034FE0AC0292F2660B22E06C028E06E
:1011300030E005C020E130E002C020E132E0F801FB
:10114000B7FE07C060817181828193810C5F1F4F60
:1011500006C06081718180E090E00E5F1F4FA301A7
:10116000F1D0882E8618FB2DFF773F2E36FE0DC05E
:10117000232D2E7FA22E891458F434FE0BC032FC8E
:1011800009C0832D8E7EA82E05C0B82CA32C03C0C9
:10119000B82C01C0B92CA4FE0FC0FE01E80DF11D52
:1011A0008081803321F49A2D997EA92E09C0A2FE58
:1011B00006C0B394B39404C08A2D867809F0B39422
:1011C000A3FC10C0A0FE06C0B21480F4280C922C20
:1011D0009B180DC0B21458F4B60180E290E076D0AE
:1011E000B394F8CFB21418F42B1802C0982C212C09
:1011F000A4FE0FC0B60180E390E068D0A2FE16C046
:10120000A1FC03C088E790E002C088E590E0B60149
:101210000CC08A2D867851F0A1FE02C08BE201C07D
:1012200080E2A7FC8DE2B60190E050D0891430F442
:10123000B60180E390E04AD09A94F8CF8A94F30103
:10124000E80DF11D8081B60190E040D08110F6CF0D
:10125000222009F44ECEB60180E290E037D02A94E5
:10126000F7CFF6018681978102C08FEF9FEF2B9613
:101270000FB6F894DEBF0FBECDBFDF91CF911F91A7
:101280000F91FF90EF90DF90CF90BF90AF909F9025
:101290008F907F906F905F904F903F902F90089528
:1012A000FC010590615070400110D8F78095909531
:1012B0008E0F9F1F0895FC01615070400190011036
:1012C000D8F7809590958E0F9F1F08950F931F93C9
:1012D000CF93DF93FB01238121FD03C08FEF9FEFAD
:1012E0002CC022FF16C046815781248135814217C8
:1012F000530744F4A081B1819D012F5F3F4F31839B
:1013000020838C93268137812F5F3F4F378326833D
:1013100014C08B01EC01FB010084F185E02D0995DF
:10132000892BE1F6D80116968D919C91179701961D
:1013300017969C938E931697CE01DF91CF911F91B4
:101340000F910895FA01AA27283051F1203181F137
:10135000E8946F936E7F6E5F7F4F8F4F9F4FAF4FBD
:10136000B1E03ED0B4E03CD0670F781F891F9A1FD0
:10137000A11D680F791F8A1F911DA11D6A0F711D84
:10138000811D911DA11D20D009F468943F912AE090
:10139000269F11243019305D3193DEF6CF01089578
:1013A000462F4770405D4193B3E00FD0C9F7F6CFA9
:1013B000462F4F70405D4A3318F0495D31FD405271
:1013C000419302D0A9F7EACFB4E0A6959795879507
:1013D00077956795BA95C9F70097610571050895E6
:1013E0009B01AC010A2E0694579547953795279592
:1013F000BA95C9F7620F731F841F951FA01D08952A
:04140000F894FFCF8E
:10140400FF01414D00414D001E000B00E407202068
:10141400202057454C434F4D45202020200050723A
:1014240065737320666F72204E657874200057656B
:101434002075736520737769746368657300312060
:10144400322033203420616E642037203800496E06
:101454007369646520436C6F636B3A20200031200C
:101464003220332034202020202037203800202030
:10147400476F204261636B202D2038202000526585
:1014840073657420436C6F636B202D203700557097
:1014940064617465206E756D3A2031203200332DFD
:1014A40070726576202020342D6E65787400496E44
:1014B4007369646520416C61726D3A2020003120AB
:1014C4003220332034202020202020203800496E70
:1014D4002053746F7077617463683A202000312D53
:1014E400737461727420322D73746F7020004669B6
:1014F40072737420534554204441544520002D2DCB
:101504002D2D2D2D2D2D2D2D2D2D2D2D3E00504DE0
:1015140000414D00257320253032643A2530326471
:101524003A25303264002530346420253032642F6B
:101534002530326420257300257320253032643A27
:101544002530326400416C61726D206973205365EB
:10155400743A00416C61726D2069736E2774205374
:1015640065743A00312D436C6F636B2020322D413A
:101574006C61726D002020332D53746F7077617429
:1015840063682020200057616E7420746F205365B7
:10159400743F00312D506175736500312D537461B2
:1015A400727400253032643A253032643A25303280
:1015B400643A2530326400312D53746172742020F2
:1015C40020322D53746F70000000030002000500E8
:1015D40000000300050001000400060002000400EE
:1015E4004D6F6E005475650057656400546875004E
:1015F400467269005361740053756E001F001C002D
:101604001F001E001F001E001F001F001E001F00E1
:041614001E001F0095
:00000001FF
